{
  "contractName": "Spot",
  "abi": [
    {
      "constant": true,
      "inputs": [],
      "name": "WEth",
      "outputs": [
        {
          "name": "",
          "type": "address"
        }
      ],
      "payable": false,
      "stateMutability": "view",
      "type": "function"
    },
    {
      "inputs": [
        {
          "name": "weth",
          "type": "address"
        }
      ],
      "payable": false,
      "stateMutability": "nonpayable",
      "type": "constructor"
    },
    {
      "anonymous": false,
      "inputs": [
        {
          "indexed": false,
          "name": "a",
          "type": "uint256"
        }
      ],
      "name": "Log",
      "type": "event"
    },
    {
      "anonymous": false,
      "inputs": [],
      "name": "Swapped",
      "type": "event"
    },
    {
      "constant": true,
      "inputs": [],
      "name": "getTraders",
      "outputs": [
        {
          "name": "",
          "type": "address[]"
        }
      ],
      "payable": false,
      "stateMutability": "view",
      "type": "function"
    },
    {
      "constant": true,
      "inputs": [],
      "name": "getTokens",
      "outputs": [
        {
          "name": "",
          "type": "address[]"
        }
      ],
      "payable": false,
      "stateMutability": "view",
      "type": "function"
    },
    {
      "constant": true,
      "inputs": [],
      "name": "getTradersAmounts",
      "outputs": [
        {
          "name": "",
          "type": "uint256[]"
        }
      ],
      "payable": false,
      "stateMutability": "view",
      "type": "function"
    },
    {
      "constant": true,
      "inputs": [
        {
          "name": "idx",
          "type": "uint256"
        }
      ],
      "name": "getLenders",
      "outputs": [
        {
          "name": "",
          "type": "address[]"
        }
      ],
      "payable": false,
      "stateMutability": "view",
      "type": "function"
    },
    {
      "constant": true,
      "inputs": [
        {
          "name": "idx",
          "type": "uint256"
        }
      ],
      "name": "getAmounts",
      "outputs": [
        {
          "name": "",
          "type": "uint256[]"
        }
      ],
      "payable": false,
      "stateMutability": "view",
      "type": "function"
    },
    {
      "constant": true,
      "inputs": [
        {
          "name": "idx",
          "type": "uint256"
        },
        {
          "name": "idx2",
          "type": "uint256"
        }
      ],
      "name": "getAmount",
      "outputs": [
        {
          "name": "",
          "type": "uint256"
        }
      ],
      "payable": false,
      "stateMutability": "view",
      "type": "function"
    },
    {
      "constant": false,
      "inputs": [
        {
          "name": "borrower",
          "type": "address"
        },
        {
          "name": "borrTokIdx",
          "type": "int256"
        },
        {
          "name": "token",
          "type": "address"
        },
        {
          "name": "x1Amount",
          "type": "uint256"
        },
        {
          "name": "lender",
          "type": "address"
        },
        {
          "name": "lenderIdx",
          "type": "int256"
        },
        {
          "name": "rate",
          "type": "uint256"
        },
        {
          "name": "fee",
          "type": "uint256"
        },
        {
          "name": "margin",
          "type": "uint256"
        }
      ],
      "name": "Lock",
      "outputs": [],
      "payable": false,
      "stateMutability": "nonpayable",
      "type": "function"
    },
    {
      "constant": false,
      "inputs": [
        {
          "name": "borrTokIdx",
          "type": "uint256"
        },
        {
          "name": "lndrs",
          "type": "uint256[]"
        },
        {
          "name": "amts",
          "type": "uint256[]"
        },
        {
          "name": "x1Total",
          "type": "uint256"
        },
        {
          "name": "rate",
          "type": "uint256"
        },
        {
          "name": "fee",
          "type": "uint256"
        },
        {
          "name": "margin",
          "type": "uint256"
        }
      ],
      "name": "BuyToCover",
      "outputs": [],
      "payable": false,
      "stateMutability": "nonpayable",
      "type": "function"
    },
    {
      "constant": false,
      "inputs": [
        {
          "name": "borrTokIdx",
          "type": "uint256[]"
        },
        {
          "name": "lenderIdx",
          "type": "uint256[]"
        },
        {
          "name": "newLenders",
          "type": "address[]"
        },
        {
          "name": "newLendersIdx",
          "type": "int256[]"
        },
        {
          "name": "amts",
          "type": "uint256[]"
        }
      ],
      "name": "Swap",
      "outputs": [],
      "payable": false,
      "stateMutability": "nonpayable",
      "type": "function"
    },
    {
      "constant": false,
      "inputs": [
        {
          "name": "borrTokIdx",
          "type": "uint256[]"
        },
        {
          "name": "lenderIdx",
          "type": "uint256[]"
        },
        {
          "name": "amts",
          "type": "uint256[]"
        }
      ],
      "name": "Recall",
      "outputs": [],
      "payable": false,
      "stateMutability": "nonpayable",
      "type": "function"
    }
  ],
  "bytecode": "0x6060604052341561000f57600080fd5b6040516020806116c98339810160405280805190602001909190505080600660006101000a81548173ffffffffffffffffffffffffffffffffffffffff021916908373ffffffffffffffffffffffffffffffffffffffff1602179055505061164d8061007c6000396000f3006060604052600436106100af576000357c0100000000000000000000000000000000000000000000000000000000900463ffffffff16806317d43c8b146100b4578063432f94581461011e5780634ca989971461017357806357b61360146101b357806359f7cf501461021d57806374c05ba7146102955780639ce6baa01461030d578063a41d0c45146103ba578063a50518a714610481578063aa6ca808146105db578063d7d541b214610645575b600080fd5b34156100bf57600080fd5b6100c761071f565b6040518080602001828103825283818151815260200191508051906020019060200280838360005b8381101561010a5780820151818401526020810190506100ef565b505050509050019250505060405180910390f35b341561012957600080fd5b61013161077d565b604051808273ffffffffffffffffffffffffffffffffffffffff1673ffffffffffffffffffffffffffffffffffffffff16815260200191505060405180910390f35b341561017e57600080fd5b61019d60048080359060200190919080359060200190919050506107a3565b6040518082815260200191505060405180910390f35b34156101be57600080fd5b6101c66107e0565b6040518080602001828103825283818151815260200191508051906020019060200280838360005b838110156102095780820151818401526020810190506101ee565b505050509050019250505060405180910390f35b341561022857600080fd5b61023e6004808035906020019091905050610874565b6040518080602001828103825283818151815260200191508051906020019060200280838360005b83811015610281578082015181840152602081019050610266565b505050509050019250505060405180910390f35b34156102a057600080fd5b6102b660048080359060200190919050506108ec565b6040518080602001828103825283818151815260200191508051906020019060200280838360005b838110156102f95780820151818401526020810190506102de565b505050509050019250505060405180910390f35b341561031857600080fd5b6103b8600480803573ffffffffffffffffffffffffffffffffffffffff1690602001909190803590602001909190803573ffffffffffffffffffffffffffffffffffffffff1690602001909190803590602001909190803573ffffffffffffffffffffffffffffffffffffffff1690602001909190803590602001909190803590602001909190803590602001909190803590602001909190505061099a565b005b34156103c557600080fd5b61047f60048080359060200190919080359060200190820180359060200190808060200260200160405190810160405280939291908181526020018383602002808284378201915050505050509190803590602001908201803590602001908080602002602001604051908101604052809392919081815260200183836020028082843782019150505050505091908035906020019091908035906020019091908035906020019091908035906020019091905050610a4c565b005b341561048c57600080fd5b6105d960048080359060200190820180359060200190808060200260200160405190810160405280939291908181526020018383602002808284378201915050505050509190803590602001908201803590602001908080602002602001604051908101604052809392919081815260200183836020028082843782019150505050505091908035906020019082018035906020019080806020026020016040519081016040528093929190818152602001838360200280828437820191505050505050919080359060200190820180359060200190808060200260200160405190810160405280939291908181526020018383602002808284378201915050505050509190803590602001908201803590602001908080602002602001604051908101604052809392919081815260200183836020028082843782019150505050505091905050610b6e565b005b34156105e657600080fd5b6105ee610e49565b6040518080602001828103825283818151815260200191508051906020019060200280838360005b83811015610631578082015181840152602081019050610616565b505050509050019250505060405180910390f35b341561065057600080fd5b61071d6004808035906020019082018035906020019080806020026020016040519081016040528093929190818152602001838360200280828437820191505050505050919080359060200190820180359060200190808060200260200160405190810160405280939291908181526020018383602002808284378201915050505050509190803590602001908201803590602001908080602002602001604051908101604052809392919081815260200183836020028082843782019150505050505091905050610edd565b005b610727611370565b600280548060200260200160405190810160405280929190818152602001828054801561077357602002820191906000526020600020905b81548152602001906001019080831161075f575b5050505050905090565b600660009054906101000a900473ffffffffffffffffffffffffffffffffffffffff1681565b60006004838154811015156107b457fe5b9060005260206000209001828154811015156107cc57fe5b906000526020600020900154905092915050565b6107e8611384565b600080548060200260200160405190810160405280929190818152602001828054801561086a57602002820191906000526020600020905b8160009054906101000a900473ffffffffffffffffffffffffffffffffffffffff1673ffffffffffffffffffffffffffffffffffffffff1681526020019060010190808311610820575b5050505050905090565b61087c611370565b60048281548110151561088b57fe5b90600052602060002090018054806020026020016040519081016040528092919081815260200182805480156108e057602002820191906000526020600020905b8154815260200190600101908083116108cc575b50505050509050919050565b6108f4611384565b60038281548110151561090357fe5b906000526020600020900180548060200260200160405190810160405280929190818152602001828054801561098e57602002820191906000526020600020905b8160009054906101000a900473ffffffffffffffffffffffffffffffffffffffff1673ffffffffffffffffffffffffffffffffffffffff1681526020019060010190808311610944575b50505050509050919050565b60008084141515156109ab57600080fd5b6000871115156109ba57600080fd5b620f4240828401858902028115156109ce57fe5b0490507fffffffffffffffffffffffffffffffffffffffffffffffffffffffffffffffff891415610a0b57610a068a8983898b610fed565b610a40565b8060028a815481101515610a1b57fe5b906000526020600020900160008282540192505081905550610a3f89878988611244565b5b50505050505050505050565b60008090505b8651811015610b2857610ac5600489815481101515610a6d57fe5b90600052602060002090018883815181101515610a8657fe5b90602001906020020151815481101515610a9c57fe5b9060005260206000209001548783815181101515610ab657fe5b90602001906020020151611356565b600489815481101515610ad457fe5b90600052602060002090018883815181101515610aed57fe5b90602001906020020151815481101515610b0357fe5b9060005260206000209001600082825403925050819055508080600101915050610a52565b620f424082840185870202811515610b3c57fe5b04600289815481101515610b4c57fe5b9060005260206000209001600082825403925050819055505050505050505050565b60008060008092505b8751831015610e1357600091505b8551821015610e065760048884815181101515610b9e57fe5b90602001906020020151815481101515610bb457fe5b90600052602060002090018784815181101515610bcd57fe5b90602001906020020151815481101515610be357fe5b9060005260206000209001549050808483815181101515610c0057fe5b90602001906020020151101515610cf057610c628884815181101515610c2257fe5b906020019060200201518784815181101515610c3a57fe5b90602001906020020151838886815181101515610c5357fe5b90602001906020020151611244565b600060048985815181101515610c7457fe5b90602001906020020151815481101515610c8a57fe5b90600052602060002090018885815181101515610ca357fe5b90602001906020020151815481101515610cb957fe5b906000526020600020900181905550808483815181101515610cd757fe5b9060200190602002018181510391508181525050610e06565b610d588884815181101515610d0157fe5b906020019060200201518784815181101515610d1957fe5b906020019060200201518685815181101515610d3157fe5b906020019060200201518886815181101515610d4957fe5b90602001906020020151611244565b8382815181101515610d6657fe5b9060200190602002015160048985815181101515610d8057fe5b90602001906020020151815481101515610d9657fe5b90600052602060002090018885815181101515610daf57fe5b90602001906020020151815481101515610dc557fe5b9060005260206000209001600082825403925050819055508382815181101515610deb57fe5b90602001906020020160008152508180600101925050610b85565b8280600101935050610b77565b7f31c9f286d78b7e28ad480f7a10a97a22c5f46113e456f96670c2ef64a81e91bd60405160405180910390a15050505050505050565b610e51611384565b6001805480602002602001604051908101604052809291908181526020018280548015610ed357602002820191906000526020600020905b8160009054906101000a900473ffffffffffffffffffffffffffffffffffffffff1673ffffffffffffffffffffffffffffffffffffffff1681526020019060010190808311610e89575b5050505050905090565b60008090505b8351811015610fe757610f6d60048583815181101515610eff57fe5b90602001906020020151815481101515610f1557fe5b90600052602060002090018483815181101515610f2e57fe5b90602001906020020151815481101515610f4457fe5b9060005260206000209001548383815181101515610f5e57fe5b90602001906020020151611356565b60048583815181101515610f7d57fe5b90602001906020020151815481101515610f9357fe5b90600052602060002090018483815181101515610fac57fe5b90602001906020020151815481101515610fc257fe5b9060005260206000209001600082825403925050819055508080600101915050610ee3565b50505050565b610ff5611384565b610ffd611370565b600080548060010182816110119190611398565b9160005260206000209001600089909190916101000a81548173ffffffffffffffffffffffffffffffffffffffff021916908373ffffffffffffffffffffffffffffffffffffffff16021790555050600180548060010182816110749190611398565b9160005260206000209001600088909190916101000a81548173ffffffffffffffffffffffffffffffffffffffff021916908373ffffffffffffffffffffffffffffffffffffffff16021790555050600280548060010182816110d791906113c4565b9160005260206000209001600087909190915055506005805480600101828161110091906113c4565b91600052602060002090016000429091909150555060016040518059106111245750595b9080825280602002602001820160405250915060016040518059106111465750595b908082528060200260200182016040525090508382600081518110151561116957fe5b9060200190602002019073ffffffffffffffffffffffffffffffffffffffff16908173ffffffffffffffffffffffffffffffffffffffff1681525050828160008151811015156111b557fe5b9060200190602002018181525050600380548060010182816111d791906113f0565b9160005260206000209001600084909190915090805190602001906111fd92919061141c565b50506004805480600101828161121391906114a6565b9160005260206000209001600083909190915090805190602001906112399291906114d2565b505050505050505050565b600081121515611293578160048581548110151561125e57fe5b90600052602060002090018281548110151561127657fe5b906000526020600020900160008282540192505081905550611350565b6003848154811015156112a257fe5b906000526020600020900180548060010182816112bf9190611398565b9160005260206000209001600085909190916101000a81548173ffffffffffffffffffffffffffffffffffffffff021916908373ffffffffffffffffffffffffffffffffffffffff1602179055505060048481548110151561131d57fe5b9060005260206000209001805480600101828161133a91906113c4565b9160005260206000209001600084909190915055505b50505050565b6000818311156113665781611368565b825b905092915050565b602060405190810160405280600081525090565b602060405190810160405280600081525090565b8154818355818115116113bf578183600052602060002091820191016113be919061151f565b5b505050565b8154818355818115116113eb578183600052602060002091820191016113ea919061151f565b5b505050565b815481835581811511611417578183600052602060002091820191016114169190611544565b5b505050565b828054828255906000526020600020908101928215611495579160200282015b828111156114945782518260006101000a81548173ffffffffffffffffffffffffffffffffffffffff021916908373ffffffffffffffffffffffffffffffffffffffff1602179055509160200191906001019061143c565b5b5090506114a29190611570565b5090565b8154818355818115116114cd578183600052602060002091820191016114cc91906115b3565b5b505050565b82805482825590600052602060002090810192821561150e579160200282015b8281111561150d5782518255916020019190600101906114f2565b5b50905061151b919061151f565b5090565b61154191905b8082111561153d576000816000905550600101611525565b5090565b90565b61156d91905b80821115611569576000818161156091906115df565b5060010161154a565b5090565b90565b6115b091905b808211156115ac57600081816101000a81549073ffffffffffffffffffffffffffffffffffffffff021916905550600101611576565b5090565b90565b6115dc91905b808211156115d857600081816115cf9190611600565b506001016115b9565b5090565b90565b50805460008255906000526020600020908101906115fd919061151f565b50565b508054600082559060005260206000209081019061161e919061151f565b505600a165627a7a723058202ba5559c0401c8f4925056ff0f775e191209e41005739a12d1acdd4594baac3b0029",
  "source": "pragma solidity ^0.4.19;\n\nimport \"./ERC20.sol\";\nimport \"./math.sol\";\n\ncontract Spot is DSMath{\n\taddress[]\tborrowers;\n\taddress[] \ttokens;\n\tuint[]\t\tamountEther; \n\taddress[][]\tlenders;\n\tuint[][]\tamounts;\n\tuint[] \t\tcreatedAt;\n\n\taddress \tpublic WEth;\n\n\tevent Log(uint a);\n\n\tfunction getTraders() public view returns (address[]) {\n\t\treturn borrowers;\n\t}\n\tfunction getTokens() public view returns (address[]) {\n\t\treturn tokens;\n\t}\n\tfunction getTradersAmounts() public view returns (uint[]) {\n\t\treturn amountEther;\n\t}\t\n\tfunction getLenders(uint idx) public view returns (address[]) {\n\t\treturn lenders[idx];\n\t}\t\n\tfunction getAmounts(uint idx) public view returns (uint[]) {\n\t\treturn amounts[idx];\n\t}\t\n\tfunction getAmount(uint idx, uint idx2) public view returns (uint) {\n\t\treturn amounts[idx][idx2];\n\t}\n\n\tfunction Spot(address weth) public {\n\t\tWEth = weth;\n\t}\n\n\tfunction Lock(\n\t\taddress\tborrower,\n\t\tint \tborrTokIdx,\n\t\taddress token, \t\n\t\tuint\tx1Amount,\n\t\taddress lender,\n\t\tint \tlenderIdx,\n\t\tuint \trate,\t\t// times 100\n\t\tuint \tfee,\t\t// basis (10000)\n\t\tuint \tmargin\t\t// basis\n\t) public {\n\t\trequire(rate != 0);\n\t\trequire(x1Amount > 0);\n\t\tuint ethAmount = x1Amount*rate*(fee + margin)/1000000;\n\t\tif (borrTokIdx == -1) {\n\t\t\taddBorrowerLock(\n\t\t\t\tborrower,\n\t\t\t\ttoken, \t\n\t\t\t\tethAmount,\n\t\t\t\tlender,\n\t\t\t\tx1Amount\n\t\t\t);\n\t\t}\n\t\telse {\n\t\t\tamountEther[uint(borrTokIdx)] += ethAmount;\n\t\t\taddLender(\n\t\t\t\tuint(borrTokIdx),\n\t\t\t\tlender,\n\t\t\t\tx1Amount,\n\t\t\t\tlenderIdx\n\t\t\t);\n\t\t}\n\n\t\t// // Transfer WETH from borrower to this\t\t\n\t\t// ERC20(WEth).transferFrom(\n\t\t// \tborrower, \n\t\t// \tthis,\n\t\t// \tethAmount\n\t\t// );\n\t\t// // Transfer base to borrower\n\t\t// ERC20(token).transferFrom(\n\t\t// \tlender,\n\t\t// \tborrower, \n\t\t// \tx1Amount\n\t\t// );\n\t}\n\t\n\tfunction BuyToCover(\n\t\tuint \tborrTokIdx,\n\t\tuint[]\tlndrs,\n\t\tuint[] \tamts,\n\t\tuint \tx1Total,\n\t\tuint \trate,\t\t// percent \t(100)\n\t\tuint \tfee,\t\t// basis \t(10000)\n\t\tuint \tmargin\t\t// basis\t(10000)\n\t) public {\n\t\tfor (uint i=0; i<lndrs.length; i++) {\n\t\t\tamounts[borrTokIdx][lndrs[i]] -= min(\n\t\t\t\tamounts[borrTokIdx][lndrs[i]],\n\t\t\t\tamts[i]\n\t\t\t);\n\t\t\t// TODO: Transfer funds to lender\n\t\t}\n\t\tamountEther[borrTokIdx] -= x1Total*rate*(fee + margin)/1000000;\n\t\t// TODO: Transfer funds to trader\n\t}\n\n\tevent Swapped();\n\tfunction Swap(\n\t\tuint[]\t\tborrTokIdx,\n\t\tuint[]\t\tlenderIdx,\n\t\taddress[] \tnewLenders,\n\t\tint[]\t\tnewLendersIdx,\n\t\tuint[] \t\tamts\n\t) public {\n\t\tfor (uint i=0; i<borrTokIdx.length; i++) {\n\t\t\tfor (uint j=0; j<newLenders.length; j++) {\n\t\t\t\tuint lockedAmt = amounts[borrTokIdx[i]][lenderIdx[i]];\n\t\t\t\tif (amts[j] >= lockedAmt) {\t\t\t\t\n\t\t\t\t\taddLender(\n\t\t\t\t\t\tborrTokIdx[i],\n\t\t\t\t\t\tnewLenders[j],\n\t\t\t\t\t\tlockedAmt,\n\t\t\t\t\t\tnewLendersIdx[j]\n\t\t\t\t\t);\n\t\t\t\t\tamounts[borrTokIdx[i]][lenderIdx[i]] = 0;\t\n\t\t\t\t\tamts[j] -= lockedAmt;\n\t\t\t\t\t// TODO: Transfer X1 \n\t\t\t\t\tbreak;\n\t\t\t\t}\n\t\t\t\telse {\n\t\t\t\t\taddLender(\n\t\t\t\t\t\tborrTokIdx[i],\n\t\t\t\t\t\tnewLenders[j],\n\t\t\t\t\t\tamts[j],\n\t\t\t\t\t\tnewLendersIdx[j]\n\t\t\t\t\t);\n\t\t\t\t\tamounts[borrTokIdx[i]][lenderIdx[i]] -= amts[j];\n\t\t\t\t\tdelete amts[j];\n\t\t\t\t\t// TODO: Transfer X1 \n\t\t\t\t}\n\t\t\t}\n\t\t}\n\t\tSwapped();\n\t}\n\n\tfunction Recall(\n\t\tuint[]\t\tborrTokIdx,\n\t\tuint[]\t\tlenderIdx,\n\t\tuint[] \t\tamts\n\t) public {\n\t\tfor(uint i=0; i<borrTokIdx.length; i++){\n\t\t\tamounts[borrTokIdx[i]][lenderIdx[i]] -= min(\n\t\t\t\tamounts[borrTokIdx[i]][lenderIdx[i]],\n\t\t\t\tamts[i]\n\t\t\t);\n\t\t\t// TODO: Transfer funds to lender & borrower\n\t\t}\n\t}\n\n\t// function MarginCall(\n\t// \taddress token,\n\t// \taddress borrower,\n\t// \tbytes32 r, \n\t// \tbytes32 s,\n\t// \tuint8 \tv, \n\t// \tuint \trate,\t\t// percent \t(100)\n\t// \tuint \tfee,\t\t// basis \t(10000)\n\t// \tuint \tmargin\t\t// basis\t(10000)) \n\t// ) public {\n\t// \tbytes32 message = keccak256(rate + fee + margin);\n\t// \trequire(ecrecover(message, v, r, s) == address(0x0)); // Oracle address here\n\t// }\n\n\tfunction addBorrowerLock(\n\t\taddress\tborrower,\n\t\taddress token, \t\n\t\tuint\tethAmount,\n\t\taddress lender,\n\t\tuint \tx1Amount\n\t) internal {\n\t\tborrowers.push(borrower);\n\t\ttokens.push(token);\n\t\tamountEther.push(ethAmount);\n\t\tcreatedAt.push(now);\n\t\taddress[] memory lenderArr = new address[](1);\n\t\tuint[] memory amtArr = new uint[](1);\n\t\tlenderArr[0] = lender;\n\t\tamtArr[0] = x1Amount;\n\t\tlenders.push(lenderArr);\n\t\tamounts.push(amtArr);\t\t\t\n\t}\n\n\tfunction addLender(\n\t\tuint \tborrTokIdx,\n\t\taddress lender,\n\t\tuint \tx1Amount,\n\t\tint \tlenderIdx\n\t) internal {\n\t\tif (lenderIdx >= 0) {\n\t\t\tamounts[borrTokIdx][uint(lenderIdx)] += x1Amount;\n\t\t}\n\t\telse {\n\t\t\tlenders[borrTokIdx].push(lender);\n\t\t\tamounts[borrTokIdx].push(x1Amount);\n\t\t}\n\t}\n}\n",
  "sourcePath": "/Users/marat/work/spotnetio/contracts/contracts/Spot.sol",
  "compiler": {
    "name": "solc",
    "version": "0.4.19+commit.c4cbbb05.Emscripten.clang"
  },
  "schemaVersion": "2.0.0",
  "updatedAt": "2018-05-06T21:43:33.525Z"
}