{
  "contractName": "Spot",
  "abi": [
    {
      "constant": true,
      "inputs": [],
      "name": "borrLength",
      "outputs": [
        {
          "name": "",
          "type": "uint256"
        }
      ],
      "payable": false,
      "stateMutability": "view",
      "type": "function"
    },
    {
      "anonymous": false,
      "inputs": [
        {
          "indexed": false,
          "name": "a",
          "type": "uint256"
        }
      ],
      "name": "Log",
      "type": "event"
    },
    {
      "anonymous": false,
      "inputs": [],
      "name": "Swapped",
      "type": "event"
    },
    {
      "constant": true,
      "inputs": [],
      "name": "getTraders",
      "outputs": [
        {
          "name": "",
          "type": "address[]"
        }
      ],
      "payable": false,
      "stateMutability": "view",
      "type": "function"
    },
    {
      "constant": true,
      "inputs": [],
      "name": "getTokens",
      "outputs": [
        {
          "name": "",
          "type": "address[]"
        }
      ],
      "payable": false,
      "stateMutability": "view",
      "type": "function"
    },
    {
      "constant": true,
      "inputs": [],
      "name": "getTradersAmounts",
      "outputs": [
        {
          "name": "",
          "type": "uint256[]"
        }
      ],
      "payable": false,
      "stateMutability": "view",
      "type": "function"
    },
    {
      "constant": true,
      "inputs": [
        {
          "name": "idx",
          "type": "uint256"
        }
      ],
      "name": "getLenders",
      "outputs": [
        {
          "name": "",
          "type": "address[]"
        }
      ],
      "payable": false,
      "stateMutability": "view",
      "type": "function"
    },
    {
      "constant": true,
      "inputs": [
        {
          "name": "idx",
          "type": "uint256"
        }
      ],
      "name": "getAmounts",
      "outputs": [
        {
          "name": "",
          "type": "uint256[]"
        }
      ],
      "payable": false,
      "stateMutability": "view",
      "type": "function"
    },
    {
      "constant": true,
      "inputs": [
        {
          "name": "idx",
          "type": "uint256"
        },
        {
          "name": "idx2",
          "type": "uint256"
        }
      ],
      "name": "getAmount",
      "outputs": [
        {
          "name": "",
          "type": "uint256"
        }
      ],
      "payable": false,
      "stateMutability": "view",
      "type": "function"
    },
    {
      "constant": true,
      "inputs": [],
      "name": "getBorrowersLength",
      "outputs": [
        {
          "name": "",
          "type": "uint256"
        }
      ],
      "payable": false,
      "stateMutability": "view",
      "type": "function"
    },
    {
      "constant": true,
      "inputs": [
        {
          "name": "idx",
          "type": "uint256"
        }
      ],
      "name": "getLendLength",
      "outputs": [
        {
          "name": "",
          "type": "uint256"
        }
      ],
      "payable": false,
      "stateMutability": "view",
      "type": "function"
    },
    {
      "constant": false,
      "inputs": [
        {
          "name": "borrower",
          "type": "address"
        },
        {
          "name": "borrTokIdx",
          "type": "int256"
        },
        {
          "name": "token",
          "type": "address"
        },
        {
          "name": "x1Amount",
          "type": "uint256"
        },
        {
          "name": "lender",
          "type": "address"
        },
        {
          "name": "lenderIdx",
          "type": "int256"
        },
        {
          "name": "rate",
          "type": "uint256"
        },
        {
          "name": "fee",
          "type": "uint256"
        },
        {
          "name": "margin",
          "type": "uint256"
        }
      ],
      "name": "Lock",
      "outputs": [],
      "payable": false,
      "stateMutability": "nonpayable",
      "type": "function"
    },
    {
      "constant": false,
      "inputs": [
        {
          "name": "borrTokIdx",
          "type": "uint256"
        },
        {
          "name": "amount",
          "type": "uint256"
        },
        {
          "name": "rate",
          "type": "uint256"
        },
        {
          "name": "fee",
          "type": "uint256"
        },
        {
          "name": "margin",
          "type": "uint256"
        }
      ],
      "name": "BuyToCover",
      "outputs": [],
      "payable": false,
      "stateMutability": "nonpayable",
      "type": "function"
    },
    {
      "constant": false,
      "inputs": [
        {
          "name": "borrTokIdx",
          "type": "uint256[]"
        },
        {
          "name": "lenderIdx",
          "type": "uint256[]"
        },
        {
          "name": "newLenders",
          "type": "address[]"
        },
        {
          "name": "newLendersIdx",
          "type": "int256[]"
        },
        {
          "name": "amts",
          "type": "uint256[]"
        }
      ],
      "name": "Swap",
      "outputs": [],
      "payable": false,
      "stateMutability": "nonpayable",
      "type": "function"
    },
    {
      "constant": false,
      "inputs": [
        {
          "name": "borrTokIdx",
          "type": "uint256[]"
        },
        {
          "name": "lenderIdx",
          "type": "uint256[]"
        },
        {
          "name": "amts",
          "type": "uint256[]"
        }
      ],
      "name": "Recall",
      "outputs": [],
      "payable": false,
      "stateMutability": "nonpayable",
      "type": "function"
    }
  ],
  "bytecode": "0x6060604052341561000f57600080fd5b611bf18061001e6000396000f3006060604052600436106100c5576000357c0100000000000000000000000000000000000000000000000000000000900463ffffffff16806317d43c8b146100ca5780632054b3f5146101345780634ca989971461015d57806357b613601461019d57806359f7cf501461020757806373ef89881461027f57806374c05ba7146102a857806389d3cfae146103205780639ce6baa014610367578063a50518a714610414578063a5ad44681461056e578063aa6ca808146105a5578063d7d541b21461060f575b600080fd5b34156100d557600080fd5b6100dd6106e9565b6040518080602001828103825283818151815260200191508051906020019060200280838360005b83811015610120578082015181840152602081019050610105565b505050509050019250505060405180910390f35b341561013f57600080fd5b610147610747565b6040518082815260200191505060405180910390f35b341561016857600080fd5b6101876004808035906020019091908035906020019091905050610751565b6040518082815260200191505060405180910390f35b34156101a857600080fd5b6101b061078e565b6040518080602001828103825283818151815260200191508051906020019060200280838360005b838110156101f35780820151818401526020810190506101d8565b505050509050019250505060405180910390f35b341561021257600080fd5b6102286004808035906020019091905050610822565b6040518080602001828103825283818151815260200191508051906020019060200280838360005b8381101561026b578082015181840152602081019050610250565b505050509050019250505060405180910390f35b341561028a57600080fd5b61029261089a565b6040518082815260200191505060405180910390f35b34156102b357600080fd5b6102c960048080359060200190919050506108a0565b6040518080602001828103825283818151815260200191508051906020019060200280838360005b8381101561030c5780820151818401526020810190506102f1565b505050509050019250505060405180910390f35b341561032b57600080fd5b610365600480803590602001909190803590602001909190803590602001909190803590602001909190803590602001909190505061094e565b005b341561037257600080fd5b610412600480803573ffffffffffffffffffffffffffffffffffffffff1690602001909190803590602001909190803573ffffffffffffffffffffffffffffffffffffffff1690602001909190803590602001909190803573ffffffffffffffffffffffffffffffffffffffff16906020019091908035906020019091908035906020019091908035906020019091908035906020019091905050610a7f565b005b341561041f57600080fd5b61056c60048080359060200190820180359060200190808060200260200160405190810160405280939291908181526020018383602002808284378201915050505050509190803590602001908201803590602001908080602002602001604051908101604052809392919081815260200183836020028082843782019150505050505091908035906020019082018035906020019080806020026020016040519081016040528093929190818152602001838360200280828437820191505050505050919080359060200190820180359060200190808060200260200160405190810160405280939291908181526020018383602002808284378201915050505050509190803590602001908201803590602001908080602002602001604051908101604052809392919081815260200183836020028082843782019150505050505091905050610b31565b005b341561057957600080fd5b61058f6004808035906020019091905050610dde565b6040518082815260200191505060405180910390f35b34156105b057600080fd5b6105b8610e02565b6040518080602001828103825283818151815260200191508051906020019060200280838360005b838110156105fb5780820151818401526020810190506105e0565b505050509050019250505060405180910390f35b341561061a57600080fd5b6106e76004808035906020019082018035906020019080806020026020016040519081016040528093929190818152602001838360200280828437820191505050505050919080359060200190820180359060200190808060200260200160405190810160405280939291908181526020018383602002808284378201915050505050509190803590602001908201803590602001908080602002602001604051908101604052809392919081815260200183836020028082843782019150505050505091905050610e96565b005b6106f1611947565b600380548060200260200160405190810160405280929190818152602001828054801561073d57602002820191906000526020600020905b815481526020019060010190808311610729575b5050505050905090565b6000600154905090565b600060058381548110151561076257fe5b90600052602060002090018281548110151561077a57fe5b906000526020600020900154905092915050565b61079661195b565b600080548060200260200160405190810160405280929190818152602001828054801561081857602002820191906000526020600020905b8160009054906101000a900473ffffffffffffffffffffffffffffffffffffffff1673ffffffffffffffffffffffffffffffffffffffff16815260200190600101908083116107ce575b5050505050905090565b61082a611947565b60058281548110151561083957fe5b906000526020600020900180548060200260200160405190810160405280929190818152602001828054801561088e57602002820191906000526020600020905b81548152602001906001019080831161087a575b50505050509050919050565b60015481565b6108a861195b565b6004828154811015156108b757fe5b906000526020600020900180548060200260200160405190810160405280929190818152602001828054801561094257602002820191906000526020600020905b8160009054906101000a900473ffffffffffffffffffffffffffffffffffffffff1673ffffffffffffffffffffffffffffffffffffffff16815260200190600101908083116108f8575b50505050509050919050565b60008090505b60068681548110151561096357fe5b906000526020600020900154811015610a0e5760058681548110151561098557fe5b90600052602060002090018181548110151561099d57fe5b906000526020600020900154851015156109c0576109bb8682610ef0565b610a01565b846005878154811015156109d057fe5b9060005260206000209001828154811015156109e857fe5b9060005260206000209001600082825403925050819055505b8080600101915050610954565b6000600687815481101515610a1f57fe5b9060005260206000209001541415610a3b57610a3a86611099565b5b620f424082840185870202811515610a4f57fe5b04600387815481101515610a5f57fe5b906000526020600020900160008282540392505081905550505050505050565b6000808414151515610a9057600080fd5b600087111515610a9f57600080fd5b620f424082840185890202811515610ab357fe5b0490507fffffffffffffffffffffffffffffffffffffffffffffffffffffffffffffffff891415610af057610aeb8a8983898b61130d565b610b25565b8060038a815481101515610b0057fe5b906000526020600020900160008282540192505081905550610b24898789886116eb565b5b50505050505050505050565b60008060008092505b8751831015610da857600091505b8551821015610d9b5760058884815181101515610b6157fe5b90602001906020020151815481101515610b7757fe5b90600052602060002090018784815181101515610b9057fe5b90602001906020020151815481101515610ba657fe5b9060005260206000209001549050808483815181101515610bc357fe5b90602001906020020151101515610c8557610c258884815181101515610be557fe5b906020019060200201518784815181101515610bfd57fe5b90602001906020020151838886815181101515610c1657fe5b906020019060200201516116eb565b610c5d8884815181101515610c3657fe5b906020019060200201518885815181101515610c4e57fe5b90602001906020020151610ef0565b808483815181101515610c6c57fe5b9060200190602002018181510391508181525050610d9b565b610ced8884815181101515610c9657fe5b906020019060200201518784815181101515610cae57fe5b906020019060200201518685815181101515610cc657fe5b906020019060200201518886815181101515610cde57fe5b906020019060200201516116eb565b8382815181101515610cfb57fe5b9060200190602002015160058985815181101515610d1557fe5b90602001906020020151815481101515610d2b57fe5b90600052602060002090018885815181101515610d4457fe5b90602001906020020151815481101515610d5a57fe5b9060005260206000209001600082825403925050819055508382815181101515610d8057fe5b90602001906020020160008152508180600101925050610b48565b8280600101935050610b3a565b7f31c9f286d78b7e28ad480f7a10a97a22c5f46113e456f96670c2ef64a81e91bd60405160405180910390a15050505050505050565b6000600682815481101515610def57fe5b9060005260206000209001549050919050565b610e0a61195b565b6002805480602002602001604051908101604052809291908181526020018280548015610e8c57602002820191906000526020600020905b8160009054906101000a900473ffffffffffffffffffffffffffffffffffffffff1673ffffffffffffffffffffffffffffffffffffffff1681526020019060010190808311610e42575b5050505050905090565b60008090505b8351811015610eea57610edd8482815181101515610eb657fe5b906020019060200201518483815181101515610ece57fe5b90602001906020020151610ef0565b8080600101915050610e9c565b50505050565b60006001600684815481101515610f0357fe5b906000526020600020900154039050600483815481101515610f2157fe5b906000526020600020900181815481101515610f3957fe5b906000526020600020900160009054906101000a900473ffffffffffffffffffffffffffffffffffffffff16600484815481101515610f7457fe5b906000526020600020900183815481101515610f8c57fe5b906000526020600020900160006101000a81548173ffffffffffffffffffffffffffffffffffffffff021916908373ffffffffffffffffffffffffffffffffffffffff160217905550600583815481101515610fe457fe5b906000526020600020900181815481101515610ffc57fe5b90600052602060002090015460058481548110151561101757fe5b90600052602060002090018381548110151561102f57fe5b906000526020600020900181905550600160068481548110151561104f57fe5b906000526020600020900160008282540392505081905550600060068481548110151561107857fe5b90600052602060002090015414156110945761109383611099565b5b505050565b6000600180540390506000818154811015156110b157fe5b906000526020600020900160009054906101000a900473ffffffffffffffffffffffffffffffffffffffff166000838154811015156110ec57fe5b906000526020600020900160006101000a81548173ffffffffffffffffffffffffffffffffffffffff021916908373ffffffffffffffffffffffffffffffffffffffff16021790555060028181548110151561114457fe5b906000526020600020900160009054906101000a900473ffffffffffffffffffffffffffffffffffffffff1660028381548110151561117f57fe5b906000526020600020900160006101000a81548173ffffffffffffffffffffffffffffffffffffffff021916908373ffffffffffffffffffffffffffffffffffffffff1602179055506003818154811015156111d757fe5b9060005260206000209001546003838154811015156111f257fe5b90600052602060002090018190555060048181548110151561121057fe5b906000526020600020900160048381548110151561122a57fe5b906000526020600020900190805461124392919061196f565b5060058181548110151561125357fe5b906000526020600020900160058381548110151561126d57fe5b90600052602060002090019080546112869291906119c1565b5060068181548110151561129657fe5b9060005260206000209001546006838154811015156112b157fe5b9060005260206000209001819055506007818154811015156112cf57fe5b9060005260206000209001546007838154811015156112ea57fe5b906000526020600020900181905550600180600082825403925050819055505050565b600880548060010182816113219190611a13565b9160005260206000209001600084909190916101000a81548173ffffffffffffffffffffffffffffffffffffffff021916908373ffffffffffffffffffffffffffffffffffffffff16021790555050600980548060010182816113849190611a3f565b9160005260206000209001600083909190915055506001546000805490501115611521578460006001548154811015156113ba57fe5b906000526020600020900160006101000a81548173ffffffffffffffffffffffffffffffffffffffff021916908373ffffffffffffffffffffffffffffffffffffffff16021790555083600260015481548110151561141557fe5b906000526020600020900160006101000a81548173ffffffffffffffffffffffffffffffffffffffff021916908373ffffffffffffffffffffffffffffffffffffffff16021790555082600360015481548110151561147057fe5b9060005260206000209001819055506008600460015481548110151561149257fe5b90600052602060002090019080546114ab92919061196f565b50600960056001548154811015156114bf57fe5b90600052602060002090019080546114d89291906119c1565b50600160066001548154811015156114ec57fe5b90600052602060002090018190555042600760015481548110151561150d57fe5b9060005260206000209001819055506116d4565b600080548060010182816115359190611a13565b9160005260206000209001600087909190916101000a81548173ffffffffffffffffffffffffffffffffffffffff021916908373ffffffffffffffffffffffffffffffffffffffff16021790555050600280548060010182816115989190611a13565b9160005260206000209001600086909190916101000a81548173ffffffffffffffffffffffffffffffffffffffff021916908373ffffffffffffffffffffffffffffffffffffffff16021790555050600380548060010182816115fb9190611a3f565b916000526020600020900160008590919091505550600480548060010182816116249190611a6b565b916000526020600020900160006008909190915090805461164692919061196f565b50506005805480600101828161165c9190611a97565b916000526020600020900160006009909190915090805461167e9291906119c1565b5050600680548060010182816116949190611a3f565b91600052602060002090016000600190919091505550600780548060010182816116be9190611a3f565b9160005260206000209001600042909190915055505b600180600082825401925050819055505050505050565b60008112151561173a578160058581548110151561170557fe5b90600052602060002090018281548110151561171d57fe5b906000526020600020900160008282540192505081905550611941565b60068481548110151561174957fe5b90600052602060002090015460048581548110151561176457fe5b906000526020600020900180549050111561185a578260048581548110151561178957fe5b90600052602060002090016006868154811015156117a357fe5b9060005260206000209001548154811015156117bb57fe5b906000526020600020900160006101000a81548173ffffffffffffffffffffffffffffffffffffffff021916908373ffffffffffffffffffffffffffffffffffffffff1602179055508160058581548110151561181457fe5b906000526020600020900160068681548110151561182e57fe5b90600052602060002090015481548110151561184657fe5b906000526020600020900181905550611917565b60048481548110151561186957fe5b906000526020600020900180548060010182816118869190611a13565b9160005260206000209001600085909190916101000a81548173ffffffffffffffffffffffffffffffffffffffff021916908373ffffffffffffffffffffffffffffffffffffffff160217905550506005848154811015156118e457fe5b906000526020600020900180548060010182816119019190611a3f565b9160005260206000209001600084909190915055505b600160068581548110151561192857fe5b9060005260206000209001600082825401925050819055505b50505050565b602060405190810160405280600081525090565b602060405190810160405280600081525090565b8280548282559060005260206000209081019282156119b05760005260206000209182015b828111156119af578254825591600101919060010190611994565b5b5090506119bd9190611ac3565b5090565b828054828255906000526020600020908101928215611a025760005260206000209182015b82811115611a015782548255916001019190600101906119e6565b5b509050611a0f9190611b06565b5090565b815481835581811511611a3a57818360005260206000209182019101611a399190611b06565b5b505050565b815481835581811511611a6657818360005260206000209182019101611a659190611b06565b5b505050565b815481835581811511611a9257818360005260206000209182019101611a919190611b2b565b5b505050565b815481835581811511611abe57818360005260206000209182019101611abd9190611b57565b5b505050565b611b0391905b80821115611aff57600081816101000a81549073ffffffffffffffffffffffffffffffffffffffff021916905550600101611ac9565b5090565b90565b611b2891905b80821115611b24576000816000905550600101611b0c565b5090565b90565b611b5491905b80821115611b505760008181611b479190611b83565b50600101611b31565b5090565b90565b611b8091905b80821115611b7c5760008181611b739190611ba4565b50600101611b5d565b5090565b90565b5080546000825590600052602060002090810190611ba19190611b06565b50565b5080546000825590600052602060002090810190611bc29190611b06565b505600a165627a7a7230582069579656a9cce5a813876be12223bd9034588f40ba6cdc565c8dbdfcd70b82740029",
  "source": "pragma solidity ^0.4.19;\n\nimport \"./ERC20.sol\";\nimport \"./math.sol\";\n\ncontract Spot is DSMath{\n\taddress[]\tborrowers;\n\tuint \t\tpublic borrLength;\n\taddress[] \ttokens;\n\tuint[]\t\tamountEther; \n\taddress[][]\tlenders;\n\tuint[][]\tamounts;\n\tuint[] \t\tlendLength;\n\tuint[] \t\tcreatedAt;\n\n\tevent Log(uint a);\n\n\tfunction getTraders() public view returns (address[]) {\n\t\treturn borrowers;\n\t}\n\tfunction getTokens() public view returns (address[]) {\n\t\treturn tokens;\n\t}\n\tfunction getTradersAmounts() public view returns (uint[]) {\n\t\treturn amountEther;\n\t}\t\n\tfunction getLenders(uint idx) public view returns (address[]) {\n\t\treturn lenders[idx];\n\t}\t\n\tfunction getAmounts(uint idx) public view returns (uint[]) {\n\t\treturn amounts[idx];\n\t}\t\n\tfunction getAmount(uint idx, uint idx2) public view returns (uint) {\n\t\treturn amounts[idx][idx2];\n\t}\n\tfunction getBorrowersLength() public view returns (uint) {\n\t\treturn borrLength;\n\t}\n\tfunction getLendLength(uint idx) public view returns (uint) {\n\t\treturn lendLength[idx];\n\t}\t\n\n\tfunction Lock(\n\t\taddress\tborrower,\n\t\tint \tborrTokIdx,\n\t\taddress token, \t\n\t\tuint\tx1Amount,\n\t\taddress lender,\n\t\tint \tlenderIdx,\n\t\tuint \trate,\t\t// times 100\n\t\tuint \tfee,\t\t// basis (10000)\n\t\tuint \tmargin\t\t// basis\n\t) public {\n\t\trequire(rate != 0);\n\t\trequire(x1Amount > 0);\n\t\tuint ethAmount = x1Amount*rate*(fee + margin)/1000000;\n\t\tif (borrTokIdx == -1) {\n\t\t\taddBorrowerLock(\n\t\t\t\tborrower,\n\t\t\t\ttoken, \t\n\t\t\t\tethAmount,\n\t\t\t\tlender,\n\t\t\t\tx1Amount\n\t\t\t);\n\t\t}\n\t\telse {\n\t\t\tamountEther[uint(borrTokIdx)] += ethAmount;\n\t\t\taddLender(\n\t\t\t\tuint(borrTokIdx),\n\t\t\t\tlender,\n\t\t\t\tx1Amount,\n\t\t\t\tlenderIdx\n\t\t\t);\n\t\t}\n\n\t\t// Transfer WETH from borrower to this\t\t\n\t\t// ERC20(WEth).transferFrom(\n\t\t// \tborrower, \n\t\t// \tthis,\n\t\t// \tethAmount\n\t\t// );\n\t\t// // Transfer base to borrower\n\t\t// ERC20(token).transferFrom(\n\t\t// \tlender,\n\t\t// \tborrower, \n\t\t// \tx1Amount\n\t\t// );\n\t}\n\t\n\tfunction BuyToCover(\n\t\tuint borrTokIdx, \n\t\tuint amount,\n\t\tuint rate,\t\t// percent \t(100)\n\t\tuint fee,\t\t// basis \t(10000)\n\t\tuint margin\t\t// basis\t(10000)\n\t) public {\n\t\tfor (uint i=0; i<lendLength[borrTokIdx]; i++) {\n\t\t\tif(amount >= amounts[borrTokIdx][i]) {\n\t\t\t\t// TODO: Transfer to lender amounts[borrTokIdx][i] \n\t\t\t\tdeleteLender(borrTokIdx, i);\n\t\t\t}\n\t\t\telse {\n\t\t\t\t// TODO: Transfer to lender amount\n\t\t\t\tamounts[borrTokIdx][i] -= amount;\n\t\t\t}\n\t\t}\n\t\tif (lendLength[borrTokIdx] == 0) {\n\t\t\tdeleteBorrowerLock(borrTokIdx);\n\t\t}\n\t\tamountEther[borrTokIdx] -= amount*rate*(fee + margin)/1000000;\n\t\t// TODO: Transfer funds to trader\n\t}\n\n\tevent Swapped();\n\tfunction Swap(\n\t\tuint[]\t\tborrTokIdx,\n\t\tuint[]\t\tlenderIdx,\n\t\taddress[] \tnewLenders,\n\t\tint[]\t\tnewLendersIdx,\n\t\tuint[] \t\tamts\n\t) public {\n\t\tfor (uint i=0; i<borrTokIdx.length; i++) {\n\t\t\tfor (uint j=0; j<newLenders.length; j++) {\n\t\t\t\tuint lockedAmt = amounts[borrTokIdx[i]][lenderIdx[i]];\n\t\t\t\tif (amts[j] >= lockedAmt) {\t\t\t\t\n\t\t\t\t\taddLender(\n\t\t\t\t\t\tborrTokIdx[i],\n\t\t\t\t\t\tnewLenders[j],\n\t\t\t\t\t\tlockedAmt,\n\t\t\t\t\t\tnewLendersIdx[j]\n\t\t\t\t\t);\n\t\t\t\t\tdeleteLender(\n\t\t\t\t\t\tborrTokIdx[i],\n\t\t\t\t\t\tlenderIdx[i]\n\t\t\t\t\t);\t\n\t\t\t\t\tamts[j] -= lockedAmt;\n\t\t\t\t\t// TODO: Transfer X1 \n\t\t\t\t\tbreak;\n\t\t\t\t}\n\t\t\t\telse {\n\t\t\t\t\taddLender(\n\t\t\t\t\t\tborrTokIdx[i],\n\t\t\t\t\t\tnewLenders[j],\n\t\t\t\t\t\tamts[j],\n\t\t\t\t\t\tnewLendersIdx[j]\n\t\t\t\t\t);\n\t\t\t\t\tamounts[borrTokIdx[i]][lenderIdx[i]] -= amts[j];\n\t\t\t\t\tdelete amts[j];\n\t\t\t\t\t// TODO: Transfer X1 \n\t\t\t\t}\n\t\t\t}\n\t\t}\n\t\tSwapped();\n\t}\n\n\tfunction Recall(\n\t\tuint[]\t\tborrTokIdx,\n\t\tuint[]\t\tlenderIdx,\n\t\tuint[] \t\tamts\n\t) public {\n\t\tfor(uint i=0; i<borrTokIdx.length; i++){\n\t\t\tdeleteLender(borrTokIdx[i], lenderIdx[i]);\n\t\t\t// TODO: Transfer funds to lender & borrower\n\t\t}\n\t}\n\n\t// function MarginCall(\n\t// \taddress token,\n\t// \taddress borrower,\n\t// \tbytes32 r, \n\t// \tbytes32 s,\n\t// \tuint8 \tv, \n\t// \tuint \trate,\t\t// percent \t(100)\n\t// \tuint \tfee,\t\t// basis \t(10000)\n\t// \tuint \tmargin\t\t// basis\t(10000)) \n\t// ) public {\n\t// \tbytes32 message = keccak256(rate + fee + margin);\n\t// \trequire(ecrecover(message, v, r, s) == address(0x0)); // Oracle address here\n\t// }\n\n\taddress[] lenderArr;\n\tuint[] amtArr;\n\tfunction addBorrowerLock(\n\t\taddress\tborrower,\n\t\taddress token, \t\n\t\tuint\tethAmount,\n\t\taddress lender,\n\t\tuint \tx1Amount\n\t) internal {\n\t\tlenderArr.push(lender);\n\t\tamtArr.push(x1Amount);\n\t\tif (borrowers.length > borrLength) {\n\t\t\tborrowers[borrLength] = borrower;\n\t\t\ttokens[borrLength] = token;\n\t\t\tamountEther[borrLength] = ethAmount;\n\t\t\tlenders[borrLength] = lenderArr;\n\t\t\tamounts[borrLength] = amtArr;\n\t\t\tlendLength[borrLength] = 1;\n\t\t\tcreatedAt[borrLength] = now;\n\t\t}\n\t\telse {\n\t\t\tborrowers.push(borrower);\n\t\t\ttokens.push(token);\n\t\t\tamountEther.push(ethAmount);\n\t\t\tlenders.push(lenderArr);\n\t\t\tamounts.push(amtArr);\n\t\t\tlendLength.push(1);\n\t\t\tcreatedAt.push(now);\t\t\t\n\t\t}\n\t\tborrLength += 1;\n\t}\n\n\tfunction addLender(\n\t\tuint \tborrTokIdx,\n\t\taddress lender,\n\t\tuint \tx1Amount,\n\t\tint \tlenderIdx\n\t) internal {\n\t\tif (lenderIdx >= 0) {\n\t\t\tamounts[borrTokIdx][uint(lenderIdx)] += x1Amount;\n\t\t}\n\t\telse {\n\t\t\tif (lenders[borrTokIdx].length > lendLength[borrTokIdx]) {\n\t\t\t\tlenders[borrTokIdx][lendLength[borrTokIdx]] = lender;\n\t\t\t\tamounts[borrTokIdx][lendLength[borrTokIdx]] = x1Amount;\n\t\t\t}\n\t\t\telse {\n\t\t\t\tlenders[borrTokIdx].push(lender);\n\t\t\t\tamounts[borrTokIdx].push(x1Amount);\n\t\t\t}\n\t\t\tlendLength[borrTokIdx] += 1;\n\t\t}\n\t}\n\n\tfunction deleteLender(\n\t\tuint \tborrTokIdx,\n\t\tuint \tlIdx\n\t) internal {\n\t\tuint lastIdx = lendLength[borrTokIdx]-1;\n\t\tlenders[borrTokIdx][lIdx] = lenders[borrTokIdx][lastIdx];\n\t\tamounts[borrTokIdx][lIdx] = amounts[borrTokIdx][lastIdx];\n\t\tlendLength[borrTokIdx] -= 1;\n\t\tif(lendLength[borrTokIdx] == 0) {\n\t\t\tdeleteBorrowerLock(borrTokIdx);\n\t\t}\n\t}\n\n\tfunction deleteBorrowerLock(\n\t\tuint \tborrTokIdx\n\t) internal {\n\t\tuint lastIdx = borrLength-1;\n\t\tborrowers[borrTokIdx] = borrowers[lastIdx];\n\t\ttokens[borrTokIdx] = tokens[lastIdx];\n\t\tamountEther[borrTokIdx] = amountEther[lastIdx];\n\t\tlenders[borrTokIdx] = lenders[lastIdx];\n\t\tamounts[borrTokIdx] = amounts[lastIdx];\n\t\tlendLength[borrTokIdx] = lendLength[lastIdx];\n\t\tcreatedAt[borrTokIdx] = createdAt[lastIdx];\n\t\tborrLength -= 1;\n\t}\n}\n",
  "sourcePath": "/Users/marat/work/spotnetio/contracts/contracts/Spot.sol",
  "compiler": {
    "name": "solc",
    "version": "0.4.19+commit.c4cbbb05.Emscripten.clang"
  },
  "schemaVersion": "2.0.0",
  "updatedAt": "2018-04-23T04:02:58.688Z"
}