{
  "contractName": "Spot",
  "abi": [
    {
      "constant": true,
      "inputs": [],
      "name": "borrLength",
      "outputs": [
        {
          "name": "",
          "type": "uint256"
        }
      ],
      "payable": false,
      "stateMutability": "view",
      "type": "function"
    },
    {
      "anonymous": false,
      "inputs": [
        {
          "indexed": false,
          "name": "a",
          "type": "uint256"
        }
      ],
      "name": "Log",
      "type": "event"
    },
    {
      "constant": true,
      "inputs": [],
      "name": "test",
      "outputs": [
        {
          "name": "",
          "type": "uint256"
        }
      ],
      "payable": false,
      "stateMutability": "view",
      "type": "function"
    },
    {
      "constant": true,
      "inputs": [],
      "name": "getTraders",
      "outputs": [
        {
          "name": "",
          "type": "address[]"
        }
      ],
      "payable": false,
      "stateMutability": "view",
      "type": "function"
    },
    {
      "constant": true,
      "inputs": [],
      "name": "getTokens",
      "outputs": [
        {
          "name": "",
          "type": "address[]"
        }
      ],
      "payable": false,
      "stateMutability": "view",
      "type": "function"
    },
    {
      "constant": true,
      "inputs": [],
      "name": "getTradersAmounts",
      "outputs": [
        {
          "name": "",
          "type": "uint256[]"
        }
      ],
      "payable": false,
      "stateMutability": "view",
      "type": "function"
    },
    {
      "constant": true,
      "inputs": [
        {
          "name": "idx",
          "type": "uint256"
        }
      ],
      "name": "getLenders",
      "outputs": [
        {
          "name": "",
          "type": "address[]"
        }
      ],
      "payable": false,
      "stateMutability": "view",
      "type": "function"
    },
    {
      "constant": true,
      "inputs": [
        {
          "name": "idx",
          "type": "uint256"
        }
      ],
      "name": "getAmounts",
      "outputs": [
        {
          "name": "",
          "type": "uint256[]"
        }
      ],
      "payable": false,
      "stateMutability": "view",
      "type": "function"
    },
    {
      "constant": true,
      "inputs": [],
      "name": "getBorrowersLength",
      "outputs": [
        {
          "name": "",
          "type": "uint256"
        }
      ],
      "payable": false,
      "stateMutability": "view",
      "type": "function"
    },
    {
      "constant": false,
      "inputs": [
        {
          "name": "borrower",
          "type": "address"
        },
        {
          "name": "borrTokIdx",
          "type": "int256"
        },
        {
          "name": "token",
          "type": "address"
        },
        {
          "name": "x1Amount",
          "type": "uint256"
        },
        {
          "name": "lender",
          "type": "address"
        },
        {
          "name": "lenderIdx",
          "type": "int256"
        },
        {
          "name": "rate",
          "type": "uint256"
        },
        {
          "name": "fee",
          "type": "uint256"
        },
        {
          "name": "margin",
          "type": "uint256"
        }
      ],
      "name": "Lock",
      "outputs": [],
      "payable": false,
      "stateMutability": "nonpayable",
      "type": "function"
    },
    {
      "constant": false,
      "inputs": [
        {
          "name": "borrTokIdx",
          "type": "uint256"
        },
        {
          "name": "amount",
          "type": "uint256"
        },
        {
          "name": "rate",
          "type": "uint256"
        },
        {
          "name": "fee",
          "type": "uint256"
        },
        {
          "name": "margin",
          "type": "uint256"
        }
      ],
      "name": "BuyToCover",
      "outputs": [],
      "payable": false,
      "stateMutability": "nonpayable",
      "type": "function"
    },
    {
      "constant": false,
      "inputs": [
        {
          "name": "borrTokIdx",
          "type": "uint256[]"
        },
        {
          "name": "lenderIdx",
          "type": "uint256[]"
        },
        {
          "name": "newLenders",
          "type": "address[]"
        },
        {
          "name": "newLendersIdx",
          "type": "int256[]"
        },
        {
          "name": "amts",
          "type": "uint256[]"
        }
      ],
      "name": "Swap",
      "outputs": [],
      "payable": false,
      "stateMutability": "nonpayable",
      "type": "function"
    },
    {
      "constant": false,
      "inputs": [
        {
          "name": "borrTokIdx",
          "type": "uint256[]"
        },
        {
          "name": "lenderIdx",
          "type": "uint256[]"
        },
        {
          "name": "amount",
          "type": "uint256"
        }
      ],
      "name": "Recall",
      "outputs": [],
      "payable": false,
      "stateMutability": "nonpayable",
      "type": "function"
    }
  ],
  "bytecode": "0x6060604052341561000f57600080fd5b611c6d8061001e6000396000f3006060604052600436106100ba576000357c0100000000000000000000000000000000000000000000000000000000900463ffffffff16806317d43c8b146100bf5780632054b3f5146101295780632ccd8cba1461015257806357b61360146101f557806359f7cf501461025f57806373ef8988146102d757806374c05ba71461030057806389d3cfae146103785780639ce6baa0146103bf578063a50518a71461046c578063aa6ca808146105c6578063f8a8fd6d14610630575b600080fd5b34156100ca57600080fd5b6100d2610659565b6040518080602001828103825283818151815260200191508051906020019060200280838360005b838110156101155780820151818401526020810190506100fa565b505050509050019250505060405180910390f35b341561013457600080fd5b61013c6106b7565b6040518082815260200191505060405180910390f35b341561015d57600080fd5b6101f3600480803590602001908201803590602001908080602002602001604051908101604052809392919081815260200183836020028082843782019150505050505091908035906020019082018035906020019080806020026020016040519081016040528093929190818152602001838360200280828437820191505050505050919080359060200190919050506106c3565b005b341561020057600080fd5b61020861087c565b6040518080602001828103825283818151815260200191508051906020019060200280838360005b8381101561024b578082015181840152602081019050610230565b505050509050019250505060405180910390f35b341561026a57600080fd5b6102806004808035906020019091905050610910565b6040518080602001828103825283818151815260200191508051906020019060200280838360005b838110156102c35780820151818401526020810190506102a8565b505050509050019250505060405180910390f35b34156102e257600080fd5b6102ea610988565b6040518082815260200191505060405180910390f35b341561030b57600080fd5b610321600480803590602001909190505061098e565b6040518080602001828103825283818151815260200191508051906020019060200280838360005b83811015610364578082015181840152602081019050610349565b505050509050019250505060405180910390f35b341561038357600080fd5b6103bd6004808035906020019091908035906020019091908035906020019091908035906020019091908035906020019091905050610a3c565b005b34156103ca57600080fd5b61046a600480803573ffffffffffffffffffffffffffffffffffffffff1690602001909190803590602001909190803573ffffffffffffffffffffffffffffffffffffffff1690602001909190803590602001909190803573ffffffffffffffffffffffffffffffffffffffff16906020019091908035906020019091908035906020019091908035906020019091908035906020019091905050610b6d565b005b341561047757600080fd5b6105c460048080359060200190820180359060200190808060200260200160405190810160405280939291908181526020018383602002808284378201915050505050509190803590602001908201803590602001908080602002602001604051908101604052809392919081815260200183836020028082843782019150505050505091908035906020019082018035906020019080806020026020016040519081016040528093929190818152602001838360200280828437820191505050505050919080359060200190820180359060200190808060200260200160405190810160405280939291908181526020018383602002808284378201915050505050509190803590602001908201803590602001908080602002602001604051908101604052809392919081815260200183836020028082843782019150505050505091905050610c1f565b005b34156105d157600080fd5b6105d9610ecf565b6040518080602001828103825283818151815260200191508051906020019060200280838360005b8381101561061c578082015181840152602081019050610601565b505050509050019250505060405180910390f35b341561063b57600080fd5b610643610f63565b6040518082815260200191505060405180910390f35b6106616119c3565b60038054806020026020016040519081016040528092919081815260200182805480156106ad57602002820191906000526020600020905b815481526020019060010190808311610699575b5050505050905090565b60008080549050905090565b600080600091505b845182101561087557600090505b835181101561086857600585838151811015156106f257fe5b9060200190602002015181548110151561070857fe5b9060005260206000209001848281518110151561072157fe5b9060200190602002015181548110151561073757fe5b9060005260206000209001548310156107bd57826005868481518110151561075b57fe5b9060200190602002015181548110151561077157fe5b9060005260206000209001858381518110151561078a57fe5b906020019060200201518154811015156107a057fe5b9060005260206000209001600082825403925050819055506107f6565b6107f585838151811015156107ce57fe5b9060200190602002015185838151811015156107e657fe5b90602001906020020151610f6c565b5b6005858381518110151561080657fe5b9060200190602002015181548110151561081c57fe5b9060005260206000209001848281518110151561083557fe5b9060200190602002015181548110151561084b57fe5b9060005260206000209001548303925080806001019150506106d9565b81806001019250506106cb565b5050505050565b6108846119d7565b600080548060200260200160405190810160405280929190818152602001828054801561090657602002820191906000526020600020905b8160009054906101000a900473ffffffffffffffffffffffffffffffffffffffff1673ffffffffffffffffffffffffffffffffffffffff16815260200190600101908083116108bc575b5050505050905090565b6109186119c3565b60058281548110151561092757fe5b906000526020600020900180548060200260200160405190810160405280929190818152602001828054801561097c57602002820191906000526020600020905b815481526020019060010190808311610968575b50505050509050919050565b60015481565b6109966119d7565b6004828154811015156109a557fe5b9060005260206000209001805480602002602001604051908101604052809291908181526020018280548015610a3057602002820191906000526020600020905b8160009054906101000a900473ffffffffffffffffffffffffffffffffffffffff1673ffffffffffffffffffffffffffffffffffffffff16815260200190600101908083116109e6575b50505050509050919050565b60008090505b600686815481101515610a5157fe5b906000526020600020900154811015610afc57600586815481101515610a7357fe5b906000526020600020900181815481101515610a8b57fe5b90600052602060002090015485101515610aae57610aa98682610f6c565b610aef565b84600587815481101515610abe57fe5b906000526020600020900182815481101515610ad657fe5b9060005260206000209001600082825403925050819055505b8080600101915050610a42565b6000600687815481101515610b0d57fe5b9060005260206000209001541415610b2957610b2886611115565b5b620f424082840185870202811515610b3d57fe5b04600387815481101515610b4d57fe5b906000526020600020900160008282540392505081905550505050505050565b6000808414151515610b7e57600080fd5b600087111515610b8d57600080fd5b620f424082840185890202811515610ba157fe5b0490507fffffffffffffffffffffffffffffffffffffffffffffffffffffffffffffffff891415610bde57610bd98a8983898b611389565b610c13565b8060038a815481101515610bee57fe5b906000526020600020900160008282540192505081905550610c1289878988611767565b5b50505050505050505050565b60008060008092505b8751831015610ec557600091505b8551821015610eb85760058884815181101515610c4f57fe5b90602001906020020151815481101515610c6557fe5b90600052602060002090018784815181101515610c7e57fe5b90602001906020020151815481101515610c9457fe5b9060005260206000209001549050808483815181101515610cb157fe5b90602001906020020151101515610da0578582815181101515610cd057fe5b9060200190602002015160048985815181101515610cea57fe5b90602001906020020151815481101515610d0057fe5b90600052602060002090018885815181101515610d1957fe5b90602001906020020151815481101515610d2f57fe5b906000526020600020900160006101000a81548173ffffffffffffffffffffffffffffffffffffffff021916908373ffffffffffffffffffffffffffffffffffffffff160217905550808483815181101515610d8757fe5b9060200190602002018181510391508181525050610eb8565b8382815181101515610dae57fe5b9060200190602002015160058985815181101515610dc857fe5b90602001906020020151815481101515610dde57fe5b90600052602060002090018885815181101515610df757fe5b90602001906020020151815481101515610e0d57fe5b906000526020600020900160008282540392505081905550610e8d8884815181101515610e3657fe5b906020019060200201518784815181101515610e4e57fe5b906020019060200201518685815181101515610e6657fe5b906020019060200201518886815181101515610e7e57fe5b90602001906020020151611767565b60008483815181101515610e9d57fe5b90602001906020020181815250508180600101925050610c36565b8280600101935050610c28565b5050505050505050565b610ed76119d7565b6002805480602002602001604051908101604052809291908181526020018280548015610f5957602002820191906000526020600020905b8160009054906101000a900473ffffffffffffffffffffffffffffffffffffffff1673ffffffffffffffffffffffffffffffffffffffff1681526020019060010190808311610f0f575b5050505050905090565b60006015905090565b60006001600684815481101515610f7f57fe5b906000526020600020900154039050600483815481101515610f9d57fe5b906000526020600020900181815481101515610fb557fe5b906000526020600020900160009054906101000a900473ffffffffffffffffffffffffffffffffffffffff16600484815481101515610ff057fe5b90600052602060002090018381548110151561100857fe5b906000526020600020900160006101000a81548173ffffffffffffffffffffffffffffffffffffffff021916908373ffffffffffffffffffffffffffffffffffffffff16021790555060058381548110151561106057fe5b90600052602060002090018181548110151561107857fe5b90600052602060002090015460058481548110151561109357fe5b9060005260206000209001838154811015156110ab57fe5b90600052602060002090018190555060016006848154811015156110cb57fe5b90600052602060002090016000828254039250508190555060006006848154811015156110f457fe5b90600052602060002090015414156111105761110f83611115565b5b505050565b60006001805403905060008181548110151561112d57fe5b906000526020600020900160009054906101000a900473ffffffffffffffffffffffffffffffffffffffff1660008381548110151561116857fe5b906000526020600020900160006101000a81548173ffffffffffffffffffffffffffffffffffffffff021916908373ffffffffffffffffffffffffffffffffffffffff1602179055506002818154811015156111c057fe5b906000526020600020900160009054906101000a900473ffffffffffffffffffffffffffffffffffffffff166002838154811015156111fb57fe5b906000526020600020900160006101000a81548173ffffffffffffffffffffffffffffffffffffffff021916908373ffffffffffffffffffffffffffffffffffffffff16021790555060038181548110151561125357fe5b90600052602060002090015460038381548110151561126e57fe5b90600052602060002090018190555060048181548110151561128c57fe5b90600052602060002090016004838154811015156112a657fe5b90600052602060002090019080546112bf9291906119eb565b506005818154811015156112cf57fe5b90600052602060002090016005838154811015156112e957fe5b9060005260206000209001908054611302929190611a3d565b5060068181548110151561131257fe5b90600052602060002090015460068381548110151561132d57fe5b90600052602060002090018190555060078181548110151561134b57fe5b90600052602060002090015460078381548110151561136657fe5b906000526020600020900181905550600180600082825403925050819055505050565b6008805480600101828161139d9190611a8f565b9160005260206000209001600084909190916101000a81548173ffffffffffffffffffffffffffffffffffffffff021916908373ffffffffffffffffffffffffffffffffffffffff16021790555050600980548060010182816114009190611abb565b916000526020600020900160008390919091505550600154600080549050111561159d5784600060015481548110151561143657fe5b906000526020600020900160006101000a81548173ffffffffffffffffffffffffffffffffffffffff021916908373ffffffffffffffffffffffffffffffffffffffff16021790555083600260015481548110151561149157fe5b906000526020600020900160006101000a81548173ffffffffffffffffffffffffffffffffffffffff021916908373ffffffffffffffffffffffffffffffffffffffff1602179055508260036001548154811015156114ec57fe5b9060005260206000209001819055506008600460015481548110151561150e57fe5b90600052602060002090019080546115279291906119eb565b506009600560015481548110151561153b57fe5b9060005260206000209001908054611554929190611a3d565b506001600660015481548110151561156857fe5b90600052602060002090018190555042600760015481548110151561158957fe5b906000526020600020900181905550611750565b600080548060010182816115b19190611a8f565b9160005260206000209001600087909190916101000a81548173ffffffffffffffffffffffffffffffffffffffff021916908373ffffffffffffffffffffffffffffffffffffffff16021790555050600280548060010182816116149190611a8f565b9160005260206000209001600086909190916101000a81548173ffffffffffffffffffffffffffffffffffffffff021916908373ffffffffffffffffffffffffffffffffffffffff16021790555050600380548060010182816116779190611abb565b916000526020600020900160008590919091505550600480548060010182816116a09190611ae7565b91600052602060002090016000600890919091509080546116c29291906119eb565b5050600580548060010182816116d89190611b13565b91600052602060002090016000600990919091509080546116fa929190611a3d565b5050600680548060010182816117109190611abb565b916000526020600020900160006001909190915055506007805480600101828161173a9190611abb565b9160005260206000209001600042909190915055505b600180600082825401925050819055505050505050565b6000811215156117b6578160058581548110151561178157fe5b90600052602060002090018281548110151561179957fe5b9060005260206000209001600082825401925050819055506119bd565b6006848154811015156117c557fe5b9060005260206000209001546004858154811015156117e057fe5b90600052602060002090018054905011156118d6578260048581548110151561180557fe5b906000526020600020900160068681548110151561181f57fe5b90600052602060002090015481548110151561183757fe5b906000526020600020900160006101000a81548173ffffffffffffffffffffffffffffffffffffffff021916908373ffffffffffffffffffffffffffffffffffffffff1602179055508160058581548110151561189057fe5b90600052602060002090016006868154811015156118aa57fe5b9060005260206000209001548154811015156118c257fe5b906000526020600020900181905550611993565b6004848154811015156118e557fe5b906000526020600020900180548060010182816119029190611a8f565b9160005260206000209001600085909190916101000a81548173ffffffffffffffffffffffffffffffffffffffff021916908373ffffffffffffffffffffffffffffffffffffffff1602179055505060058481548110151561196057fe5b9060005260206000209001805480600101828161197d9190611abb565b9160005260206000209001600084909190915055505b60016006858154811015156119a457fe5b9060005260206000209001600082825401925050819055505b50505050565b602060405190810160405280600081525090565b602060405190810160405280600081525090565b828054828255906000526020600020908101928215611a2c5760005260206000209182015b82811115611a2b578254825591600101919060010190611a10565b5b509050611a399190611b3f565b5090565b828054828255906000526020600020908101928215611a7e5760005260206000209182015b82811115611a7d578254825591600101919060010190611a62565b5b509050611a8b9190611b82565b5090565b815481835581811511611ab657818360005260206000209182019101611ab59190611b82565b5b505050565b815481835581811511611ae257818360005260206000209182019101611ae19190611b82565b5b505050565b815481835581811511611b0e57818360005260206000209182019101611b0d9190611ba7565b5b505050565b815481835581811511611b3a57818360005260206000209182019101611b399190611bd3565b5b505050565b611b7f91905b80821115611b7b57600081816101000a81549073ffffffffffffffffffffffffffffffffffffffff021916905550600101611b45565b5090565b90565b611ba491905b80821115611ba0576000816000905550600101611b88565b5090565b90565b611bd091905b80821115611bcc5760008181611bc39190611bff565b50600101611bad565b5090565b90565b611bfc91905b80821115611bf85760008181611bef9190611c20565b50600101611bd9565b5090565b90565b5080546000825590600052602060002090810190611c1d9190611b82565b50565b5080546000825590600052602060002090810190611c3e9190611b82565b505600a165627a7a7230582059df960a6a05095419e260f40b1e5198a5d80d4c3d5df81419f0c2284ebf99d20029",
  "source": "pragma solidity ^0.4.19;\n\nimport \"./ERC20.sol\";\nimport \"./math.sol\";\n\ncontract Spot is DSMath{\n\taddress[]\tborrowers;\n\tuint \t\tpublic borrLength;\n\taddress[] \ttokens;\n\tuint[]\t\tamountEther; \n\taddress[][]\tlenders;\n\tuint[][]\tamounts;\n\tuint[] \t\tlendLength;\n\tuint[] \t\tcreatedAt;\n\n\tevent Log(uint a);\n\n\tfunction test() public view returns (uint) {\n\t\treturn 21;\n\t}\n\tfunction getTraders() public view returns (address[]) {\n\t\treturn borrowers;\n\t}\n\tfunction getTokens() public view returns (address[]) {\n\t\treturn tokens;\n\t}\n\tfunction getTradersAmounts() public view returns (uint[]) {\n\t\treturn amountEther;\n\t}\t\n\tfunction getLenders(uint idx) public view returns (address[]) {\n\t\treturn lenders[idx];\n\t}\t\n\tfunction getAmounts(uint idx) public view returns (uint[]) {\n\t\treturn amounts[idx];\n\t}\t\n\tfunction getBorrowersLength() public view returns (uint) {\n\t\treturn borrowers.length;\n\t}\t\n\n\tfunction Lock(\n\t\taddress\tborrower,\n\t\tint \tborrTokIdx,\n\t\taddress token, \t\n\t\tuint\tx1Amount,\n\t\taddress lender,\n\t\tint \tlenderIdx,\n\t\tuint \trate,\t\t// times 100\n\t\tuint \tfee,\t\t// basis (10000)\n\t\tuint \tmargin\t\t// basis\n\t) public {\n\t\trequire(rate != 0);\n\t\trequire(x1Amount > 0);\n\t\tuint ethAmount = x1Amount*rate*(fee + margin)/1000000;\n\t\tif (borrTokIdx == -1) {\n\t\t\taddBorrowerLock(\n\t\t\t\tborrower,\n\t\t\t\ttoken, \t\n\t\t\t\tethAmount,\n\t\t\t\tlender,\n\t\t\t\tx1Amount\n\t\t\t);\n\t\t}\n\t\telse {\n\t\t\tamountEther[uint(borrTokIdx)] += ethAmount;\n\t\t\taddLender(\n\t\t\t\tuint(borrTokIdx),\n\t\t\t\tlender,\n\t\t\t\tx1Amount,\n\t\t\t\tlenderIdx\n\t\t\t);\n\t\t}\n\n\t\t// Transfer WETH from borrower to this\t\t\n\t\t// ERC20(WEth).transferFrom(\n\t\t// \tborrower, \n\t\t// \tthis,\n\t\t// \tethAmount\n\t\t// );\n\t\t// // Transfer base to borrower\n\t\t// ERC20(token).transferFrom(\n\t\t// \tlender,\n\t\t// \tborrower, \n\t\t// \tx1Amount\n\t\t// );\n\t}\n\t\n\tfunction BuyToCover(\n\t\tuint borrTokIdx, \n\t\tuint amount,\n\t\tuint rate,\t\t// percent \t(100)\n\t\tuint fee,\t\t// basis \t(10000)\n\t\tuint margin\t\t// basis\t(10000)\n\t) public {\n\t\tfor (uint i=0; i<lendLength[borrTokIdx]; i++) {\n\t\t\tif(amount >= amounts[borrTokIdx][i]) {\n\t\t\t\t// TODO: Transfer to lender amounts[borrTokIdx][i] \n\t\t\t\tdeleteLender(borrTokIdx, i);\n\t\t\t}\n\t\t\telse {\n\t\t\t\t// TODO: Transfer to lender amount\n\t\t\t\tamounts[borrTokIdx][i] -= amount;\n\t\t\t}\n\t\t}\n\t\tif (lendLength[borrTokIdx] == 0) {\n\t\t\tdeleteBorrowerLock(borrTokIdx);\n\t\t}\n\t\tamountEther[borrTokIdx] -= amount*rate*(fee + margin)/1000000;\n\t\t// TODO: Transfer funds to trader\n\t}\n\n\tfunction Swap(\n\t\tuint[]\t\tborrTokIdx,\n\t\tuint[]\t\tlenderIdx,\n\t\taddress[]\tnewLenders,\n\t\tint[]\t\tnewLendersIdx,\n\t\tuint[] \t\tamts\n\t) public {\n\t\tfor (uint i=0; i<borrTokIdx.length; i++) {\n\t\t\tfor (uint j=0; j<newLenders.length; j++) {\n\t\t\t\tuint amt = amounts[borrTokIdx[i]][lenderIdx[i]];\n\t\t\t\tif (amts[j] >= amt) {\n\t\t\t\t\tlenders[borrTokIdx[i]][lenderIdx[i]] = newLenders[j];\n\t\t\t\t\tamts[j] -= amt;\n\t\t\t\t\t// TODO: Transfer X1 \n\t\t\t\t\tbreak;\n\t\t\t\t}\n\t\t\t\telse {\n\t\t\t\t\tamounts[borrTokIdx[i]][lenderIdx[i]] -= amts[j];\n\t\t\t\t\taddLender(\n\t\t\t\t\t\tborrTokIdx[i],\n\t\t\t\t\t\tnewLenders[j],\n\t\t\t\t\t\tamts[j],\n\t\t\t\t\t\tnewLendersIdx[j]\n\t\t\t\t\t);\n\t\t\t\t\tamts[j] = 0;\n\t\t\t\t\t// TODO: Transfer X1 \n\t\t\t\t}\n\t\t\t}\n\t\t}\n\t}\n\n\tfunction Recall(\n\t\tuint[]\t\tborrTokIdx,\n\t\tuint[]\t\tlenderIdx,\n\t\tuint \t\tamount\n\t) public {\n\t\tfor(uint i=0; i<borrTokIdx.length; i++){\n\t\t\tfor(uint j=0; j<lenderIdx.length; j++){\n\t\t\t\t// TODO: Save info about funds to transfer\t\t\t\t\n\t\t\t\tif (amount < amounts[borrTokIdx[i]][lenderIdx[j]]) {\n\t\t\t\t\tamounts[borrTokIdx[i]][lenderIdx[j]] -= amount;\n\t\t\t\t}\n\t\t\t\telse {\n\t\t\t\t\tdeleteLender(borrTokIdx[i], lenderIdx[j]);\n\t\t\t\t}\n\t\t\t\tamount -= amounts[borrTokIdx[i]][lenderIdx[j]];\n\t\t\t}\n\t\t}\n\t\t// TODO: Transfer funds to lender\n\t}\n\n\t// function MarginCall(\n\t// \taddress token,\n\t// \taddress borrower,\n\t// \tbytes32 r, \n\t// \tbytes32 s,\n\t// \tuint8 \tv, \n\t// \tuint \trate,\t\t// percent \t(100)\n\t// \tuint \tfee,\t\t// basis \t(10000)\n\t// \tuint \tmargin\t\t// basis\t(10000)) \n\t// ) public {\n\t// \tbytes32 message = keccak256(rate + fee + margin);\n\t// \trequire(ecrecover(message, v, r, s) == address(0x0)); // Oracle address here\n\t// }\n\n\taddress[] lenderArr;\n\tuint[] amtArr;\n\tfunction addBorrowerLock(\n\t\taddress\tborrower,\n\t\taddress token, \t\n\t\tuint\tethAmount,\n\t\taddress lender,\n\t\tuint \tx1Amount\n\t) internal {\n\t\tlenderArr.push(lender);\n\t\tamtArr.push(x1Amount);\n\t\tif (borrowers.length > borrLength) {\n\t\t\tborrowers[borrLength] = borrower;\n\t\t\ttokens[borrLength] = token;\n\t\t\tamountEther[borrLength] = ethAmount;\n\t\t\tlenders[borrLength] = lenderArr;\n\t\t\tamounts[borrLength] = amtArr;\n\t\t\tlendLength[borrLength] = 1;\n\t\t\tcreatedAt[borrLength] = now;\n\t\t}\n\t\telse {\n\t\t\tborrowers.push(borrower);\n\t\t\ttokens.push(token);\n\t\t\tamountEther.push(ethAmount);\n\t\t\tlenders.push(lenderArr);\n\t\t\tamounts.push(amtArr);\n\t\t\tlendLength.push(1);\n\t\t\tcreatedAt.push(now);\t\t\t\n\t\t}\n\t\tborrLength += 1;\n\t}\n\n\tfunction addLender(\n\t\tuint \tborrTokIdx,\n\t\taddress lender,\n\t\tuint \tx1Amount,\n\t\tint \tlenderIdx\n\t) internal {\n\t\tif (lenderIdx >= 0) {\n\t\t\tamounts[borrTokIdx][uint(lenderIdx)] += x1Amount;\n\t\t}\n\t\telse {\n\t\t\tif (lenders[borrTokIdx].length > lendLength[borrTokIdx]) {\n\t\t\t\tlenders[borrTokIdx][lendLength[borrTokIdx]] = lender;\n\t\t\t\tamounts[borrTokIdx][lendLength[borrTokIdx]] = x1Amount;\n\t\t\t}\n\t\t\telse {\n\t\t\t\tlenders[borrTokIdx].push(lender);\n\t\t\t\tamounts[borrTokIdx].push(x1Amount);\n\t\t\t}\n\t\t\tlendLength[borrTokIdx] += 1;\n\t\t}\n\t}\n\n\tfunction deleteLender(\n\t\tuint \tborrTokIdx,\n\t\tuint \tlIdx\n\t) internal {\n\t\tuint lastIdx = lendLength[borrTokIdx]-1;\n\t\tlenders[borrTokIdx][lIdx] = lenders[borrTokIdx][lastIdx];\n\t\tamounts[borrTokIdx][lIdx] = amounts[borrTokIdx][lastIdx];\n\t\tlendLength[borrTokIdx] -= 1;\n\t\tif(lendLength[borrTokIdx] == 0) {\n\t\t\tdeleteBorrowerLock(borrTokIdx);\n\t\t}\n\t}\n\n\tfunction deleteBorrowerLock(\n\t\tuint \tborrTokIdx\n\t) internal {\n\t\tuint lastIdx = borrLength-1;\n\t\tborrowers[borrTokIdx] = borrowers[lastIdx];\n\t\ttokens[borrTokIdx] = tokens[lastIdx];\n\t\tamountEther[borrTokIdx] = amountEther[lastIdx];\n\t\tlenders[borrTokIdx] = lenders[lastIdx];\n\t\tamounts[borrTokIdx] = amounts[lastIdx];\n\t\tlendLength[borrTokIdx] = lendLength[lastIdx];\n\t\tcreatedAt[borrTokIdx] = createdAt[lastIdx];\n\t\tborrLength -= 1;\n\t}\n}\n",
  "sourcePath": "/Users/marat/work/spotnetio/contracts/contracts/Spot.sol",
  "compiler": {
    "name": "solc",
    "version": "0.4.19+commit.c4cbbb05.Emscripten.clang"
  },
  "schemaVersion": "2.0.0",
  "updatedAt": "2018-04-21T21:11:54.381Z"
}