{
  "contractName": "Spot",
  "abi": [
    {
      "anonymous": false,
      "inputs": [
        {
          "indexed": false,
          "name": "a",
          "type": "uint256"
        }
      ],
      "name": "Log",
      "type": "event"
    },
    {
      "constant": false,
      "inputs": [
        {
          "name": "lender",
          "type": "address"
        },
        {
          "name": "borrower",
          "type": "address"
        },
        {
          "name": "token",
          "type": "address"
        },
        {
          "name": "ethAmount",
          "type": "uint256"
        },
        {
          "name": "rate",
          "type": "uint256"
        },
        {
          "name": "fee",
          "type": "uint256"
        },
        {
          "name": "margin",
          "type": "uint256"
        }
      ],
      "name": "Lock",
      "outputs": [],
      "payable": false,
      "stateMutability": "nonpayable",
      "type": "function"
    },
    {
      "constant": true,
      "inputs": [
        {
          "name": "user",
          "type": "address"
        }
      ],
      "name": "getNumberOfLocksForAddress",
      "outputs": [
        {
          "name": "",
          "type": "uint256"
        }
      ],
      "payable": false,
      "stateMutability": "view",
      "type": "function"
    },
    {
      "constant": true,
      "inputs": [
        {
          "name": "user",
          "type": "address"
        },
        {
          "name": "idx",
          "type": "uint256"
        }
      ],
      "name": "getLock",
      "outputs": [
        {
          "name": "",
          "type": "address"
        },
        {
          "name": "",
          "type": "address"
        },
        {
          "name": "",
          "type": "address"
        },
        {
          "name": "",
          "type": "uint256"
        },
        {
          "name": "",
          "type": "uint256"
        },
        {
          "name": "",
          "type": "uint256"
        }
      ],
      "payable": false,
      "stateMutability": "view",
      "type": "function"
    }
  ],
  "bytecode": "0x60606040526000600160006101000a81548173ffffffffffffffffffffffffffffffffffffffff021916908373ffffffffffffffffffffffffffffffffffffffff160217905550341561005157600080fd5b610951806100606000396000f300606060405260043610610057576000357c0100000000000000000000000000000000000000000000000000000000900463ffffffff1680631208a2561461005c57806315b5a922146101595780631a9b0012146101a6575b600080fd5b341561006757600080fd5b61009c600480803573ffffffffffffffffffffffffffffffffffffffff16906020019091908035906020019091905050610241565b604051808773ffffffffffffffffffffffffffffffffffffffff1673ffffffffffffffffffffffffffffffffffffffff1681526020018673ffffffffffffffffffffffffffffffffffffffff1673ffffffffffffffffffffffffffffffffffffffff1681526020018573ffffffffffffffffffffffffffffffffffffffff1673ffffffffffffffffffffffffffffffffffffffff168152602001848152602001838152602001828152602001965050505050505060405180910390f35b341561016457600080fd5b610190600480803573ffffffffffffffffffffffffffffffffffffffff1690602001909190505061040e565b6040518082815260200191505060405180910390f35b34156101b157600080fd5b61023f600480803573ffffffffffffffffffffffffffffffffffffffff1690602001909190803573ffffffffffffffffffffffffffffffffffffffff1690602001909190803573ffffffffffffffffffffffffffffffffffffffff16906020019091908035906020019091908035906020019091908035906020019091908035906020019091905050610459565b005b6000806000806000806102526107ce565b6000808a73ffffffffffffffffffffffffffffffffffffffff1673ffffffffffffffffffffffffffffffffffffffff1681526020019081526020016000208881548110151561029d57fe5b906000526020600020906006020160c060405190810160405290816000820160009054906101000a900473ffffffffffffffffffffffffffffffffffffffff1673ffffffffffffffffffffffffffffffffffffffff1673ffffffffffffffffffffffffffffffffffffffff1681526020016001820160009054906101000a900473ffffffffffffffffffffffffffffffffffffffff1673ffffffffffffffffffffffffffffffffffffffff1673ffffffffffffffffffffffffffffffffffffffff1681526020016002820160009054906101000a900473ffffffffffffffffffffffffffffffffffffffff1673ffffffffffffffffffffffffffffffffffffffff1673ffffffffffffffffffffffffffffffffffffffff16815260200160038201548152602001600482015481526020016005820154815250509050806000015181602001518260400151836060015184608001518560a00151965096509650965096509650509295509295509295565b60008060008373ffffffffffffffffffffffffffffffffffffffff1673ffffffffffffffffffffffffffffffffffffffff168152602001908152602001600020805490509050919050565b60006104636107ce565b6000851415151561047357600080fd5b60008611151561048257600080fd5b828401850286620f42400281151561049657fe5b04915060c0604051908101604052808a73ffffffffffffffffffffffffffffffffffffffff1681526020018973ffffffffffffffffffffffffffffffffffffffff1681526020018873ffffffffffffffffffffffffffffffffffffffff1681526020018381526020018781526020014281525090506000808a73ffffffffffffffffffffffffffffffffffffffff1673ffffffffffffffffffffffffffffffffffffffff168152602001908152602001600020805480600101828161055b9190610847565b9160005260206000209060060201600083909190915060008201518160000160006101000a81548173ffffffffffffffffffffffffffffffffffffffff021916908373ffffffffffffffffffffffffffffffffffffffff16021790555060208201518160010160006101000a81548173ffffffffffffffffffffffffffffffffffffffff021916908373ffffffffffffffffffffffffffffffffffffffff16021790555060408201518160020160006101000a81548173ffffffffffffffffffffffffffffffffffffffff021916908373ffffffffffffffffffffffffffffffffffffffff160217905550606082015181600301556080820151816004015560a082015181600501555050506000808973ffffffffffffffffffffffffffffffffffffffff1673ffffffffffffffffffffffffffffffffffffffff16815260200190815260200160002080548060010182816106b79190610847565b9160005260206000209060060201600083909190915060008201518160000160006101000a81548173ffffffffffffffffffffffffffffffffffffffff021916908373ffffffffffffffffffffffffffffffffffffffff16021790555060208201518160010160006101000a81548173ffffffffffffffffffffffffffffffffffffffff021916908373ffffffffffffffffffffffffffffffffffffffff16021790555060408201518160020160006101000a81548173ffffffffffffffffffffffffffffffffffffffff021916908373ffffffffffffffffffffffffffffffffffffffff160217905550606082015181600301556080820151816004015560a08201518160050155505050505050505050505050565b60c060405190810160405280600073ffffffffffffffffffffffffffffffffffffffff168152602001600073ffffffffffffffffffffffffffffffffffffffff168152602001600073ffffffffffffffffffffffffffffffffffffffff1681526020016000815260200160008152602001600081525090565b815481835581811511610874576006028160060283600052602060002091820191016108739190610879565b5b505050565b61092291905b8082111561091e57600080820160006101000a81549073ffffffffffffffffffffffffffffffffffffffff02191690556001820160006101000a81549073ffffffffffffffffffffffffffffffffffffffff02191690556002820160006101000a81549073ffffffffffffffffffffffffffffffffffffffff02191690556003820160009055600482016000905560058201600090555060060161087f565b5090565b905600a165627a7a72305820e78915464d93aba456d9deef60e9180a68c34cc83b072023593ce41b226f25fc0029",
  "source": "pragma solidity ^0.4.19;\n\nimport \"./ERC20.sol\";\nimport \"./math.sol\";\n\ncontract Spot is DSMath{\n\tstruct lock{\n\t\taddress\t\tlender;\n\t\taddress\t\tborrower;\n\t\taddress \tx1;\n\t\tuint \t\tamountX1;\n\t\tuint\t\tamountEther; \n\t\tuint \t\tcreatedAt;\n\t}\n\tmapping (address => lock[]) locks;\n\n\taddress WEth = address(0x0); // Weth address here\n\n\tevent Log(uint a);\n\n\tfunction Lock(\n\t\taddress lender, \n\t\taddress\tborrower,\n\t\taddress token, \t\n\t\tuint\tethAmount,\n\t\tuint \trate,\t\t// times 100\n\t\tuint \tfee,\t\t// basis (10000)\n\t\tuint \tmargin\t\t// basis\n\t) public {\n\t\trequire(rate != 0);\n\t\trequire(ethAmount > 0);\n\t\tuint x1Amount = 1000000*ethAmount/(rate*(fee + margin));\n\t\tlock memory lk = lock(\n\t\t\tlender, \n\t\t\tborrower, \n\t\t\ttoken,\n\t\t\tx1Amount, \n\t\t\tethAmount,\n\t\t\tnow\n\t\t);\n\t\tlocks[lender].push(lk);\n\t\tlocks[borrower].push(lk);\n\t\t// Transfer WETH from borrower to this\t\t\n\t\t// ERC20(WEth).transferFrom(\n\t\t// \tborrower, \n\t\t// \tthis,\n\t\t// \tethAmount\n\t\t// );\n\t\t// // Transfer base to borrower\n\t\t// ERC20(token).transferFrom(\n\t\t// \tlender,\n\t\t// \tborrower, \n\t\t// \tx1Amount\n\t\t// );\n\t}\n\t\n\t// function BuyToCover(\n\t// \taddress token, \n\t// \taddress borrower,\n\t// \tuint \trate,\t\t// percent \t(100)\n\t// \tuint \tfee,\t\t// basis \t(10000)\n\t// \tuint \tmargin\t\t// basis\t(10000)\n\t// ) public {\n\t// \tlock[] storage locksForToken = locks[token];\n\t// \tfor (uint i=0; i<locksForToken.length; i++) {\n\t// \t\tif (locksForToken[i].borrower == msg.sender) {\n\t// \t\t\trequire (ERC20(token).allowance(msg.sender, this) >= locksForToken[i].amountX1);\n\t// \t\t\tERC20(token).transferFrom(\n\t// \t\t\t\tmsg.sender, \n\t// \t\t\t\tlocksForToken[i].lender, \n\t// \t\t\t\tlocksForToken[i].amountX1\n\t// \t\t\t);\n\t// \t\t\t// Transfer WETH to borrower from this\t\t\n\t// \t\t\tERC20(WEth).transfer(\n\t// \t\t\t\tborrower, \n\t// \t\t\t\tlocksForToken[i].amountX1*rate*(fee + margin)/1000000\n\t// \t\t\t);\n\t// \t\t\tdelete locksForToken[i]; // TODO: implement linked list\n\t// \t\t}\n\t// \t}\n\t// }\n\n\t// function SwapLenders(\n\t// \taddress \ttoken, \n\t// \taddress\t\tlender,\n\t// \taddress[]\tlenders,\n\t// \tuint \t\trate,\t\t// percent \t(100)\n\t// \tuint \t\tfee,\t\t// basis \t(10000)\n\t// \tuint \t\tmargin\t\t// basis\t\t(10000)) \n\t// ) public {\n\t// \tlock[] storage locksForToken = locks[token];\n\t// \tfor (uint i=0; i<locksForToken.length; i++) {\n\t// \t\tif (locksForToken[i].lender == lender) {\n\t// \t\t\tfor (uint j=0; j<lenders.length; j++) {\n\t// \t\t\t\tuint allowance = ERC20(token).allowance(\n\t// \t\t\t\t\tlenders[j], \n\t// \t\t\t\t\tthis\n\t// \t\t\t\t);\n\t// \t\t\t\tif (allowance > 0) {\n\t// \t\t\t\t\tuint x1ToTransfer = min(allowance, locksForToken[i].amountX1);\n\t// \t\t\t\t\tuint etherToTransfer = x1ToTransfer*rate*(fee + margin)/1000000;\n\t// \t\t\t\t\tlocksForToken[i].amountX1 -= x1ToTransfer;\n\t// \t\t\t\t\tlocksForToken[i].amountEther -= etherToTransfer;\n\t// \t\t\t\t\tlocks[token].push(lock(\n\t// \t\t\t\t\t\tlenders[j], \n\t// \t\t\t\t\t\tlocksForToken[i].borrower, \n\t// \t\t\t\t\t\tx1ToTransfer, \n\t// \t\t\t\t\t\tetherToTransfer\n\t// \t\t\t\t\t));\n\t// \t\t\t\t\t// Transfer X1 from new lender to old\n\t// \t\t\t\t\tERC20(token).transferFrom(\n\t// \t\t\t\t\t\tlenders[j], \n\t// \t\t\t\t\t\tlender, \n\t// \t\t\t\t\t\tx1ToTransfer\n\t// \t\t\t\t\t);\n\t// \t\t\t\t}\n\t// \t\t\t}\n\t// \t\t}\n\t// \t}\n\t// }\n\n\t// function MarginCall(\n\t// \taddress token,\n\t// \taddress borrower,\n\t// \tbytes32 r, \n\t// \tbytes32 s,\n\t// \tuint8 \tv, \n\t// \tuint \trate,\t\t// percent \t(100)\n\t// \tuint \tfee,\t\t// basis \t(10000)\n\t// \tuint \tmargin\t\t// basis\t(10000)) \n\t// ) public {\n\t// \tbytes32 message = keccak256(rate + fee + margin);\n\t// \trequire(ecrecover(message, v, r, s) == address(0x0)); // Oracle address here\n\t// \tlock[] storage locksForToken = locks[token];\n\t// \tfor (uint i=0; i<locksForToken.length; i++) {\n\t// \t\tif (locksForToken[i].borrower == borrower) {\n\t// \t\t\tif(locksForToken[i].amountEther < locksForToken[i].amountX1*rate*(fee + margin)/1000000) {\n\t// \t\t\t\t// Send Ether to lender\n\t// \t\t\t\tERC20(WEth).transfer(\n\t// \t\t\t\t\tlocksForToken[i].lender, \n\t// \t\t\t\t\tlocksForToken[i].amountEther\n\t// \t\t\t\t);\n\t// \t\t\t\tdelete locksForToken[i];\n\t// \t\t\t}\n\t// \t\t}\n\t// \t}\n\t// }\n\n\tfunction getNumberOfLocksForAddress(\n\t\taddress user\n\t) public view returns (uint) {\n\t\treturn locks[user].length;\n\t}\n\n\tfunction getLock(\n\t\taddress user,\n\t\tuint \tidx\n\t) public view returns (\n\t\taddress, \n\t\taddress, \n\t\taddress, \n\t\tuint, \n\t\tuint, \n\t\tuint\n\t) {\n\t\tlock memory lk = locks[user][idx];\n\t\treturn (\n\t\t\tlk.lender, \n\t\t\tlk.borrower,\n\t\t\tlk.x1, \n\t\t\tlk.amountX1, \n\t\t\tlk.amountEther, \n\t\t\tlk.createdAt \n\t\t);\n\t}\n\n\t// function getLock(\n\t// \taddress token, \n\t// \taddress lender, \n\t// \taddress borrower\n\t// ) public view returns (uint, uint) {\n\t// \tuint x1Amount;\n\t// \tuint etherAmount;\n\t// \tlock[] storage locksForToken = locks[token];\n\t// \tfor (uint i=0; i<locksForToken.length; i++) {\n\t// \t\tif (locksForToken[i].lender == lender && locksForToken[i].borrower == borrower) {\n\t// \t\t\tx1Amount += locksForToken[i].amountX1;\n\t// \t\t\tetherAmount += locksForToken[i].amountEther;\n\t// \t\t}\n\t// \t}\n\t// \treturn (x1Amount, etherAmount);\n\t// }\n\n\t// function getLockLender(\n\t// \taddress token, \n\t// \taddress lender\n\t// ) public view returns (uint) {\n\t// \tuint x1Amount;\n\t// \tlock[] storage locksForToken = locks[token];\n\t// \tfor (uint i=0; i<locksForToken.length; i++) {\n\t// \t\tif (locksForToken[i].lender == lender) {\n\t// \t\t\tx1Amount += locksForToken[i].amountX1;\n\t// \t\t}\n\t// \t}\n\t// \treturn x1Amount;\n\t// }\n}\n\n\n\n\n\n\n\n\n\n\n\n\n\n\n\n\n\n",
  "sourcePath": "/Users/marat/work/spotnetio/contracts/contracts/Spot.sol",
  "compiler": {
    "name": "solc",
    "version": "0.4.19+commit.c4cbbb05.Emscripten.clang"
  },
  "schemaVersion": "2.0.0",
  "updatedAt": "2018-04-13T03:08:28.337Z"
}